:100000000C945D000C9485000C9485000C94850084
:100010000C9485000C9485000C9485000C9485004C
:100020000C9485000C9485000C9485000C9485003C
:100030000C9485000C9485000C9485000C9485002C
:100040000C94C9030C9485000C9497030C947103D1
:100050000C9485000C9485000C9485000C9485000C
:100060000C9413040C948500000000002400270069
:100070002A0000000000250028002B0004040404CE
:100080000404040402020202020203030303030342
:10009000010204081020408001020408102001021F
:1000A00004081020000000080002010000030407FB
:1000B0000000000000000000410511241FBECFEF2A
:1000C000D8E0DEBFCDBF11E0A0E0B1E0E4EBFEE0A0
:1000D00002C005900D92A832B107D9F722E0A8E23C
:1000E000B1E001C01D92A837B207E1F710E0CDE5FD
:1000F000D0E004C02197FE010E944D07CC35D10706
:10010000C9F70E947A050C9458070C940000CF920E
:10011000DF92EF92FF920F931F93CF93DF936C01C7
:100120007A018B01C0E0D0E0CE15DF0589F0D8015F
:100130006D918D01D601ED91FC910190F081E02D42
:10014000C6010995892B11F47E0102C02196ECCFDE
:10015000C701DF91CF911F910F91FF90EF90DF903A
:10016000CF900895E0914801F0914901309729F02E
:100170001092BA011092B90109940895CF93DF93B8
:10018000AC01E091C101F091C2013097F1F0909182
:10019000BC018091BB019817C0F090E0292F30E09E
:1001A0002617370754F4D901A85DBE4FEA01C20FE4
:1001B000D31F88818C939F5FF1CF1092BC01609315
:1001C000BB01CB01DF91CF910994DF91CF910895CD
:1001D000FC01538D448D252F30E0842F90E0821B4D
:1001E000930B541710F0CF96089501970895FC01D2
:1001F000918D828D981761F0828DDF01A80FB11D5E
:100200005D968C91928D9F5F9F73928F90E0089581
:100210008FEF9FEF0895FC01918D828D981731F03B
:10022000828DE80FF11D858D90E008958FEF9FEF8F
:100230000895FC01918D228D892F90E0805C9F4F65
:10024000821B91098F73992708958FEC91E00E948A
:10025000190121E0892B09F420E0822F0895FC0187
:10026000848DDF01A80FB11DA35ABF4F2C91848D3F
:1002700090E001968F739927848FA689B7892C9374
:10028000A089B1898C9180648C93938D848D98130F
:1002900006C00288F389E02D80818F7D80830895D8
:1002A000EF92FF920F931F93CF93DF93EC0181E0C6
:1002B000888F9B8D8C8D981305C0E889F989808182
:1002C00085FD24C0F62E0B8D10E00F5F1F4F0F73BE
:1002D0001127E02E8C8DE8120CC00FB607FCFACF68
:1002E000E889F989808185FFF5CFCE010E942F0131
:1002F000F1CF8B8DFE01E80FF11DE35AFF4FF08225
:100300000B8FEA89FB898081806207C0EE89FF89B3
:100310006083E889F98980818064808381E090E04E
:10032000DF91CF911F910F91FF90EF900895CF93A0
:10033000DF93EC01888D8823C9F0EA89FB898081ED
:1003400085FD05C0A889B9898C9186FD0FC00FB6BF
:1003500007FCF5CF808185FFF2CFA889B9898C9100
:1003600085FFEDCFCE010E942F01E7CFDF91CF9126
:10037000089580E090E0892B29F00E9425018111E9
:100380000C940000089590E0FC01EC55FF4F34916F
:10039000FC01E057FF4F2491FC01E458FF4FE4912A
:1003A000EE2309F43BC0332339F1333091F038F4B4
:1003B0003130A9F0323001F584B58F7D12C037306D
:1003C00091F03830A1F03430B9F4809180008F7D05
:1003D00003C0809180008F77809380000DC084B52A
:1003E0008F7784BD09C08091B0008F7703C0809162
:1003F000B0008F7D8093B000F0E0EE0FFF1FEE584D
:10040000FF4FA591B4918FB7F894EC91611103C09F
:1004100020952E2301C02E2B2C938FBF0895CF93B0
:10042000DF9390E0FC01E057FF4F2491FC01E4587A
:10043000FF4F8491882361F190E0880F991FFC01A0
:10044000E859FF4FC591D491FC01EE58FF4FA5919B
:10045000B491611109C09FB7F894888120958223D7
:100460008883EC912E230BC0623061F49FB7F8941F
:100470003881822F809583238883EC912E2B2C93B7
:100480009FBF06C08FB7F894E8812E2B28838FBFBB
:10049000DF91CF9108951F93CF93DF93182FEB0136
:1004A00061E00E940F02209711F460E004C0CF3F8A
:1004B000D10539F461E0812FDF91CF911F910C9428
:1004C000C301E12FF0E0EC55FF4FE491E330F9F088
:1004D00048F4E130B9F0E230A1F584B5806284BD22
:1004E000C8BD34C0E730E9F0E83019F1E43049F52F
:1004F00080918000806280938000D0938B00C093B5
:100500008A0024C084B5806884BDC7BD1FC08091A7
:100510008000806880938000D0938900C093880019
:1005200015C08091B00080688093B000C093B30084
:100530000DC08091B00080628093B000C093B40081
:1005400005C0C038D1050CF0B5CFAFCFDF91CF914A
:100550001F9108953FB7F8948091B2019091B30133
:10056000A091B401B091B50126B5A89B05C02F3F5D
:1005700019F00196A11DB11D3FBFBA2FA92F982FC9
:100580008827820F911DA11DB11DBC01CD0142E044
:10059000660F771F881F991F4A95D1F7089585ED3B
:1005A0008093BC008091BC0084FDFCCF1092B80108
:1005B000089540916A01262F30E0240F311D213229
:1005C0003105DCF42091B8012430C9F4FC0180E04D
:1005D00090E0861758F430916A012191DC01A65B06
:1005E000BE4FA30FB11D2C930196F3CF80916A01EA
:1005F000680F60936A0180E0089581E0089582E0C9
:1006000008950895E091BC018091BB01E81730F492
:10061000F0E0E85DFE4F808190E008958FEF9FEF5E
:1006200008959091BC018091BB01981750F4E92F77
:10063000F0E0E85DFE4F208130E09F5F9093BC01C9
:1006400002C02FEF3FEFC90108958CE692E00E94AF
:1006500011039093CE018093CD018CE692E00E942D
:1006600011039093CC018093CB018CE692E00E9421
:100670001103909303018093020108958091BB01BF
:1006800090E02091BC01821B91090895CF93DF93E4
:1006900000D0CDB7DEB7CB01642F49835A830E94C7
:1006A000D9024981842F5A81952F0F900F90DF91A5
:1006B000CF910895CF93DF931F92CDB7DEB76983B3
:1006C00061E0CE0101960E94D90281E090E00F9096
:1006D000DF91CF910895089580E090E008950E9401
:1006E00053071F920F920FB60F9211242F933F932F
:1006F0004F935F936F937F938F939F93AF93BF932A
:10070000EF93FF938FEC91E00E942F01FF91EF9107
:10071000BF91AF919F918F917F916F915F914F9119
:100720003F912F910F900FBE0F901F9018951F9221
:100730000F920FB60F9211242F938F939F93EF93E5
:10074000FF93E091DF01F091E0018081E091E5010C
:10075000F091E60182FD12C090818091E8018F5FE7
:100760008F732091E901821751F0E091E801F0E0E8
:10077000E153FE4F958F8093E80101C08081FF9186
:10078000EF919F918F912F910F900FBE0F901F901F
:1007900018951F920F920FB60F9211242F933F932B
:1007A0008F939F93AF93BF938091C3019091C401A6
:1007B000A091C501B091C6013091B10123E0230F92
:1007C0002D3720F40196A11DB11D05C026E8230F89
:1007D0000296A11DB11D2093B1018093C301909396
:1007E000C401A093C501B093C6018091B20190915C
:1007F000B301A091B401B091B5010196A11DB11D45
:100800008093B2019093B301A093B401B093B5016A
:10081000BF91AF919F918F913F912F910F900FBEFC
:100820000F901F9018951F920F920FB60F921124E0
:100830002F933F934F935F936F937F938F939F93E8
:10084000AF93BF93EF93FF938091B900887F803679
:1008500009F49CC068F5883209F45BC090F48031DB
:1008600009F454C038F4882309F4F6C0883009F438
:100870004DC0F6C0883109F44CC0803209F45DC027
:10088000EFC0803409F468C048F4803309F455C0DF
:10089000883309F0E5C080938D01D8C0803509F414
:1008A0004FC0883509F45DC0883409F0D9C0D6C07E
:1008B000883909F4C7C0A8F4883709F467C038F448
:1008C000883609F463C0803709F460C0C9C088382D
:1008D00009F4B8C0803909F45FC0803809F0C0C09D
:1008E0005BC0803B09F486C038F4803A09F466C0E6
:1008F000883A09F47FC0B4C0803C09F4A7C0883CA2
:1009000009F4A4C0883B09F48AC0AAC08091B00150
:1009100010C09091AF018091AE01981770F5E091F1
:10092000AF0181E08E0F8093AF01F0E0E257FE4F00
:1009300080818093BB0085EC86C080938D018EC042
:10094000E091AF0181E08E0F8093AF018091BB00F9
:10095000F0E0E257FE4F80839091AF018091AE01AD
:100960006EC0E091AF0181E08E0F8093AF01809166
:10097000BB00F0E0E257FE4F80838091B701811108
:100980006DC081E08093B60184EA61C083E080930A
:10099000B80110928C01CFCF80918C01803208F089
:1009A00051C0E0918C0181E08E0F80938C01809189
:1009B000BB00F0E0E459FE4F8083BDCF85EC80930F
:1009C000BC001092B80180918C01803230F4E0912B
:1009D0008C01F0E0E459FE4F108260918C0170E0D0
:1009E000E091BD01F091BE018CE691E00995109275
:1009F0008C0136C084E08093B80110926B01109294
:100A00006A01E091BF01F091C001099580916A01EE
:100A1000811105C081E080936A0110924A01E09142
:100A20006B0181E08E0F80936B01F0E0E65BFE4F7F
:100A300080818093BB0090916B0180916A0198172F
:100A400008F479CF85E88093BC000AC085EC8093D8
:100A5000BC001092B80104C010928D010E94CF0218
:100A6000FF91EF91BF91AF919F918F917F916F9186
:100A70005F914F913F912F910F900FBE0F901F905C
:100A80001895EFECF1E01382128288EE93E0A0E07B
:100A9000B0E084839583A683B78328E031E0318377
:100AA000208325EC30E03587248724EC30E037873D
:100AB000268720EC30E0318B208B21EC30E0338B2B
:100AC000228B22EC30E0358B248B26EC30E0378B08
:100AD000268B118E128E138E148EECE6F2E01382AA
:100AE000128284839583A683B7838AE191E0918300
:100AF00080830895789484B5826084BD84B58160D4
:100B000084BD85B5826085BD85B5816085BD8091D8
:100B10006E00816080936E00109281008091810050
:100B20008260809381008091810081608093810048
:100B3000809180008160809380008091B10084600A
:100B40008093B1008091B00081608093B00080916B
:100B50007A00846080937A0080917A00826080932A
:100B60007A0080917A00816080937A0080917A0087
:100B7000806880937A001092C10062E085E00E9454
:100B80000F0262E08BE00E940F0262E080E10E94AF
:100B90000F0262E081E10E940F0262E08EE00E949B
:100BA0000F0262E08FE00E940F0261E08AE00E9483
:100BB0000F0261E086E00E940F0280E18093BA009C
:100BC00082EB90E09093C0018093BF018EEB90E0A8
:100BD0009093BE018093BD011092BC011092BB01A5
:100BE0001092BA011092B9011092B80181E080937D
:100BF000B7011092B60161E082E10E94C30161E099
:100C000083E10E94C3018091B9008E7F8093B90077
:100C10008091B9008D7F8093B90088E48093B800FB
:100C200085E48093BC0085E293E09093C2018093B9
:100C3000C101E091DF01F091E00182E08083E09169
:100C4000DB01F091DC011082E091DD01F091DE0129
:100C50008FEC80831092E701E091E301F091E401D1
:100C600086E08083E091E101F091E2018081806182
:100C70008083E091E101F091E201808188608083CE
:100C8000E091E101F091E201808180688083E09150
:100C9000E101F091E20180818F7D80830E94AA02B0
:100CA0004B015C0185E0C82ED12CE12CF12C0E9477
:100CB000AA02DC01CB0188199909AA09BB09883E5F
:100CC0009340A105B10558F021E0C21AD108E1080E
:100CD000F10838EE830E33E0931EA11CB11CC11441
:100CE000D104E104F10419F76091CD017091CE01B6
:100CF0008AE00E944B026091CB017091CC0186E0AA
:100D00000E944B028FB7F894C090C301D090C401E9
:100D1000E090C501F090C6018FBFD092CA01C09289
:100D2000C90180910201909103018130910509F47C
:100D300093C082309105E1F460E070E085E00E94AC
:100D40004B0260E070E08BE00E944B026FEF70E0BE
:100D500080E10E944B026FEF70E081E10E944B0244
:100D60006FEF70E08EE00E944B026FEF70E08FC07B
:100D70008330910551F560E070E08BE00E944B02FA
:100D800060E070E08FE00E944B0260E070E08EE077
:100D90000E944B028091C7019091C8019601281BC7
:100DA000390B2A3F31050CF475C0C0910001D09178
:100DB0000101BE0185E00E944B02BE0181E10E945B
:100DC0004B0260E070E080E12CC084309105E9F5D1
:100DD00060E070E085E00E944B0260E070E081E13D
:100DE0000E944B0260E070E080E10E944B02809123
:100DF000C7019091C8019601281B390B2A3F310584
:100E00000CF448C0C0910001D0910101BE018BE0FB
:100E10000E944B02BE018FE00E944B0260E070E036
:100E20008EE00E944B02CD2B39F48FEF90E090932F
:100E300001018093000104C0109201011092000191
:100E4000D092C801C092C70125C0059719F56FEF70
:100E500070E086E00E944B0260E070E085E00E9456
:100E60004B0260E070E08BE00E944B0260E070E0BB
:100E700080E10E944B0260E070E081E10E944B0241
:100E800060E070E08EE00E944B0260E070E08FE076
:100E90000E944B020E94B90101CFEE0FFF1F059087
:100EA000F491E02D099481E090E0F8940C945807B7
:040EB000F894FFCFE4
:100EB400FF0001000000000050018700E8009701D6
:100EC4001901F7000B01000000005A0346036C03EC
:080ED40001033E0311030203B8
:00000001FF
