:1000000026C1000055C1000053C1000051C10000CD
:100010004FC100004DC100004BC1000049C10000AC
:1000200047C1000045C1000043C1000041C10000BC
:100030003FC1000052C600003BC1000039C10000B2
:1000400037C10000FAC7000033C1000031C1000011
:100050002FC100002DC100002BC10000F4C500001D
:1000600027C100008BC3000060C3000021C1000055
:100070001FC100001DC100001BC1000019C100000C
:10008000AFC7000015C1000013C1000011C100007E
:100090000FC100000DC100000BC10000FBC7000034
:1000A00007C1000005C100006EC7000001C10000CB
:1000B000FFC00000FDC00000FBC0000037C700000B
:1000C000F7C00000F5C00000F3C00000F1C0000060
:1000D000EFC00000EDC00000EBC00000E9C0000070
:1000E000E7C000007A027D026C0270027602B40260
:1000F000810285028B028F02930299029D02A10266
:10010000B402A702AB02AF024B05500555055F05CF
:100110006905E20573057B0583058D059705A10536
:10012000B005BA05E205C405CE05D80500002000DB
:100130002300260029002C002F00320000010000BF
:1001400003010601090100002100240027002A0004
:100150002D003000330001010000040107010A01F5
:1001600000002200250028002B002E003100340062
:1001700002010000050108010B0105050505070541
:1001800008080808020202020A0A08080404040413
:10019000010101010101010103030303030303033F
:1001A000040707070C0C0C0C0C0C0C0C02020202CE
:1001B00006060606060606060B0B0B0B0B0B0B0BB7
:1001C0000102102020080810204010204080020169
:1001D000020108040201010204081020408080404E
:1001E000201008040201800402018040201008044D
:1001F00002010804020101020408102040800102EB
:1002000004081020408000000A0B02090C0D0E08A3
:1002100007030401000000000000000000000000CF
:1002200000000000000000000000000000000000CE
:10023000000012111000000000000000000000008B
:10024000000000000000000000000000151711244D
:100250001FBECFEFD1E2DEBFCDBF00E00CBF12E08A
:10026000A0E0B2E0EEE2F8E300E00BBF02C00790CE
:100270000D92A433B107D9F725E0A4E3B2E001C0A1
:100280001D92A330B207E1F711E0C7E2D1E000E030
:1002900006C021970109802FFE010E94A51AC632CF
:1002A000D10780E00807A9F70E94750C0C94151C73
:1002B000A7CEFC01538D448D252F30E0842F90E094
:1002C000821B930B541710F0CF9608950197089551
:1002D000FC01918D828D981761F0828DDF01A80F4E
:1002E000B11D5D968C91928D9F5F9F73928F90E070
:1002F00008958FEF9FEF0895FC01918D828D9817DF
:1003000031F0828DE80FF11D858D90E008958FEF1B
:100310009FEF0895FC01918D228D892F90E0805CE4
:100320009F4F821B91098F739927089586EE92E063
:10033000F1DF21E0892B09F420E0822F0895FC01F0
:10034000848DDF01A80FB11DA35ABF4F2C91848D5E
:1003500090E001968F739927848FA689B7892C9393
:10036000A089B1898C9180648C93938D848D98132E
:1003700006C00288F389E02D80818F7D80830895F7
:10038000EF92FF920F931F93CF93DF93EC0181E0E5
:10039000888F9B8D8C8D981305C0E889F9898081A1
:1003A00085FD23C0F62E0B8D10E00F5F1F4F0F73DE
:1003B0001127E02E8C8DE8120BC00FB607FCFACF88
:1003C000E889F989808185FFF5CFCE01B8DFF2CFCA
:1003D0008B8DFE01E80FF11DE35AFF4FF0820B8F6A
:1003E000EA89FB898081806207C0EE89FF8960838A
:1003F000E889F98980818064808381E090E0DF91E1
:10040000CF911F910F91FF90EF900895CF93DF93BD
:10041000EC01888D8823C1F0EA89FB89808185FD04
:1004200005C0A889B9898C9186FD0EC00FB607FC5E
:10043000F5CF808185FFF2CFA889B9898C9185FF9E
:10044000EDCFCE017CDFE8CFDF91CF91089580E042
:1004500090E0892B19F06ADF811125C080E090E0DF
:10046000892B41F080E090E0892B21F00E94000070
:1004700081111CC080E090E0892B41F080E090E089
:10048000892B21F00E940000811113C080E090E0D0
:10049000892BA1F080E090E0892B81F00E94000080
:1004A00081110AC008950E940000D8CF0E94000068
:1004B000E1CF0E940000EACF0C940000089590E084
:1004C000FC013197E231F10508F04EC08827EE5863
:1004D000FF4F8F4F0C94A51A809180008F7703C037
:1004E000809180008F7D80938000089580918000AE
:1004F000877FF9CF84B58F7702C084B58F7D84BDA7
:1005000008958091B0008F7703C08091B0008F7DF7
:100510008093B0000895809190008F7707C08091FC
:1005200090008F7D03C080919000877F8093900022
:1005300008958091A0008F7707C08091A0008F7DE3
:1005400003C08091A000877F8093A00008958091D0
:1005500020018F7707C0809120018F7D03C080919B
:100560002001877F8093200108953FB7F894809100
:10057000D2029091D302A091D402B091D50226B5B7
:10058000A89B05C02F3F19F00196A11DB11D3FBFCB
:10059000BA2FA92F982F8827820F911DA11DB11D59
:1005A000BC01CD0142E0660F771F881F991F4A9555
:1005B000D1F7089585ED8093BC008091BC0084FD47
:1005C000FCCF1092E804089540918002262F30E07D
:1005D000240F311D21323105DCF42091E804243050
:1005E000C9F4FC0180E090E0861758F43091800255
:1005F0002191DC01A25ABD4FA30FB11D2C9301968E
:10060000F3CF80918002680F6093800280E00895AC
:1006100081E0089582E00895089581E090E03091AE
:10062000EC042091EB04321710F480E090E09195F7
:100630008195910908958091EC049091EB048917BC
:1006400030F48F5F8093EC0480E090E008958FEFAA
:100650009FEF08958091EB0490E02091EC04821BC1
:1006600091090895CF92DF92EF92FF920F931F931B
:10067000CF93DF937C01262F972F8A0180915D0213
:10068000882391F0C62FD72F6E01C40ED51ECC152E
:10069000DD0569F06991D701ED91FC910190F08140
:1006A000E02DC7011995F3CF642F822F8DDFC8018C
:1006B000DF91CF911F910F91FF90EF90DF90CF903E
:1006C0000895CF93DF931F92CDB7DEB76983209152
:1006D0005D022223D1F02091E904203240F021E094
:1006E00030E0FC013383228380E090E014C08091ED
:1006F000EA04E82FF0E0E35CFD4F998190838F5F7F
:100700008093EA048093E90404C061E0CE0101967D
:100710005BDF81E090E00F90DF91CF910895089525
:1007200080E090E008950E94111C1F920F920FB676
:100730000F9211240BB60F922F933F934F935F9319
:100740006F937F938F939F93AF93BF93EF93FF9399
:1007500086EE92E0F4DDFF91EF91BF91AF919F9112
:100760008F917F916F915F914F913F912F910F905A
:100770000BBE0F900FBE0F901F9018951F920F92F7
:100780000FB60F9211240BB60F922F938F939F9356
:10079000EF93FF93E091F602F091F7028081E091F0
:1007A000FC02F091FD0282FD12C090818091FF0257
:1007B0008F5F8F7320910003821751F0E091FF0249
:1007C000F0E0EA51FD4F958F8093FF0201C08081D8
:1007D000FF91EF919F918F912F910F900BBE0F90F2
:1007E0000FBE0F901F9018951F93CF93DF93282F64
:1007F00030E0F901EA5FFD4F8491F901E054FE4FCA
:10080000D491F901E658FE4FC491CC23C1F0162FC4
:10081000811155DEEC2FF0E0EE0FFF1FE05AFE4F86
:10082000A591B4918FB7F894111105C09C91ED2F4B
:10083000E095E92302C0EC91ED2BEC938FBFDF91A3
:10084000CF911F910895CF92DF92EF92FF920F9375
:100850001F93CF93DF936C018B017A01EC01C75397
:10086000DD4F888187FF04C0FB011182108224C004
:100870008CE08C9D90018D9D300D11248881A90103
:10088000480F511D87FD5A958091130490E0481739
:10089000590794F48881A901480F511D87FD5A9585
:1008A000CA01FA01EE0FFF1F8E0F9F1FFC01ED57CB
:1008B000FC4F808186FD19C088818F5F88838CE022
:1008C0008C9D90018D9D300D11248881A901480FC8
:1008D000511D87FD5A958091130490E048175907E0
:1008E000B4F488818C303CF112C08881280F311D0E
:1008F00087FD3A95F901EE0FFF1F2E0F3F1FF901FB
:10090000ED57FC4F808160E08F736EDFD5CFF8012B
:1009100080819181049680349C4918F480E49CE99C
:1009200004C0F801808191810496F701918380834E
:100930008FEF888344C0F801408151818881B901DB
:10094000680F711D87FD7A95CB01FB01EE0FFF1F2C
:100950008E0F9F1FFC01ED57FC4F81819281840F08
:10096000951FF701918380838881A901480F511D4C
:1009700087FD5A95CA01FA01EE0FFF1F8E0F9F1FC8
:10098000FC01ED57FC4F808186FF19C08881280F3C
:10099000311D87FD3A95F901EE0FFF1F2E0F3F1F06
:1009A000F901ED57FC4F808161E08F73DF91CF91AA
:1009B0001F910F91FF90EF90DF90CF9015CFDF91B7
:1009C000CF911F910F91FF90EF90DF90CF900895FE
:1009D000CF93DF9390E0FC01E054FE4F2491FC01A3
:1009E000E658FE4F8491882361F190E0880F991FAB
:1009F000FC01EA5BFE4FC591D491FC01E05AFE4F29
:100A0000A591B491611109C09FB7F8948881209590
:100A100082238883EC912E230BC0623061F49FB750
:100A2000F8943881822F809583238883EC912E2B34
:100A30002C939FBF06C08FB7F894E8812E2B288394
:100A40008FBFDF91CF9108951F93CF93DF93182F1E
:100A5000EB0161E0BDDF209711F460E004C0CF3FFF
:100A6000D10531F461E0812FDF91CF911F91BCCE90
:100A7000E12FF0E0EA5FFD4FE4914E2F50E0FA01E4
:100A80003197E231F10508F09DC08827EC57FF4F00
:100A90008F4F0C94A51A84B5806884BDC7BD97C0DC
:100AA00084B5806284BDC8BD92C08091800080689A
:100AB00080938000D0938900C093880088C0809183
:100AC0008000806280938000D0938B00C0938A0066
:100AD0007EC080918000886080938000D0938D00DC
:100AE000C0938C0074C08091B00080688093B00087
:100AF000C093B3006CC08091B00080628093B0005E
:100B0000C093B40064C0809190008068809390008E
:100B1000D0939900C09398005AC080919000806251
:100B200080939000D0939B00C0939A0050C0809116
:100B30009000886080939000D0939D00C0939C00AB
:100B400046C08091A00080688093A0008091A000A2
:100B50008F7B8093A000D093A900C093A80037C0DA
:100B60008091A00080628093A000D093AB00C093DE
:100B7000AA002DC08091A00088608093A000D0932F
:100B8000AD00C093AC0023C08091200180688093A9
:100B90002001D0932901C093280119C08091200120
:100BA000806280932001D0932B01C0932A010FC053
:100BB00080912001886080932001D0932D01C09303
:100BC0002C0105C0C038D1050CF04CCF46CFDF91C9
:100BD000CF911F9108958F929F92AF92BF92CF9223
:100BE000DF92EF92FF926B017C01BFDC4B015C0155
:100BF000C114D104E104F104E9F0B7DCDC01CB015C
:100C000088199909AA09BB09883E9340A105B10535
:100C100078F321E0C21AD108E108F10888EE880EC5
:100C200083E0981EA11CB11CC114D104E104F1049D
:100C300021F7DECFFF90EF90DF90CF90BF90AF9085
:100C40009F908F9008951F920F920FB60F921124CC
:100C50002F933F938F939F93AF93BF938091CE0237
:100C60009091CF02A091D002B091D1023091CD02EB
:100C700023E0230F2D3720F40196A11DB11D05C0DF
:100C800026E8230F0296A11DB11D2093CD0280936B
:100C9000CE029093CF02A093D002B093D102809164
:100CA000D2029091D302A091D402B091D5020196C4
:100CB000A11DB11D8093D2029093D302A093D402C0
:100CC000B093D502BF91AF919F918F913F912F919A
:100CD0000F900FBE0F901F9018951F920F920FB696
:100CE0000F9211240BB60F922F933F934F935F9364
:100CF0006F937F938F939F93AF93BF93CF93DF9324
:100D0000EF93FF932091150430E0F901EA5FFD4F66
:100D10008491F901E054FE4FD491F901E658FE4F59
:100D2000C491CC2399F08111CADBEC2FF0E0EE0FD7
:100D3000FF1FE45DFE4FA591B491EC91ED2331E0EE
:100D400020E009F430E0832F922F02C080E090E091
:100D50002091190430911A042F5F3F4F30931A04E9
:100D60002093190420911804253618F026E02093CA
:100D70001404209114042430D9F128F4223069F0AD
:100D80002330D9F060C0253009F453C0263009F073
:100D90005AC021E02093E50453C0009709F053C0E6
:100DA0002091190430911A042436310508F443C007
:100DB0001092E504109218041DC08130910509F0CD
:100DC00042C0E091180421E02E0F20931804F0E0B7
:100DD0002091190430911A04EE0FFF1FEC5EFB4FB7
:100DE0003087278310921A041092190424E029C036
:100DF0000097B9F4E091180421E02E0F2093180415
:100E0000F0E02091190430911A04EE0FFF1FEC5E00
:100E1000FB4F3087278310921A041092190423E0A5
:100E200010C02091190430911A042536310558F06C
:100E300007C0009741F410921A041092190403C0DD
:100E400025E020931404209117042223B1F0892B6C
:100E500051F480911604882321F08091160461E0FA
:100E600009C02F9A0AC080911604882329F0809126
:100E7000160460E0B9DC01C02F98FF91EF91DF917B
:100E8000CF91BF91AF919F918F917F916F915F9122
:100E90004F913F912F910F900BBE0F900FBE0F906F
:100EA0001F901895CF92DF92EF92FF92CF93DF932E
:100EB000EC01072E000C880B990B0E9477196B012F
:100EC0007C0120E030E040E45FE30E94271A20E04C
:100ED00030E048E452E40E94DC180E944419C6172E
:100EE000D707D4F020E030E040EA5FE3C701B60165
:100EF0000E94271A20E030E048E452E40E94DC1807
:100F000020E030E040E85FE30E9474180E9444193A
:100F100021E06C177D070CF420E0822F90E0DF9138
:100F2000CF91FF90EF90DF90CF9008951F920F9296
:100F30000FB60F9211240BB60F922F933F934F933E
:100F40005F936F937F938F939F93AF93BF93EF9331
:100F5000FF9348E251E064E271E080E090E073DCEE
:100F6000FF91EF91BF91AF919F918F917F916F9181
:100F70005F914F913F912F910F900BBE0F900FBE3D
:100F80000F901F9018951F920F920FB60F92112479
:100F90000BB60F922F933F934F935F936F937F9373
:100FA0008F939F93AF93BF93EF93FF9348EA50E0E3
:100FB00064EA70E083E090E046DCFF91EF91BF913E
:100FC000AF919F918F917F916F915F914F913F91E1
:100FD0002F910F900BBE0F900FBE0F901F90189582
:100FE0001F920F920FB60F9211240BB60F922F93F0
:100FF0003F934F935F936F937F938F939F93AF93A1
:10100000BF93EF93FF9348E950E064E970E082E01A
:1010100090E019DCFF91EF91BF91AF919F918F917B
:101020007F916F915F914F913F912F910F900BBEE8
:101030000F900FBE0F901F9018951F920F920FB632
:101040000F9211240BB60F922F933F934F935F9300
:101050006F937F938F939F93AF93BF93EF93FF9380
:1010600048E850E064E870E081E090E0ECDBFF915C
:10107000EF91BF91AF919F918F917F916F915F9110
:101080004F913F912F910F900BBE0F900FBE0F907D
:101090001F9018951F920F920FB60F9211240BB646
:1010A0000F922F933F934F935F936F937F938F9301
:1010B0009F93AF93BF93EF93FF938091B900887F85
:1010C000803609F49CC068F5883209F45BC090F45E
:1010D000803109F454C038F4882309F4F6C088300C
:1010E00009F44DC0F5C0883109F44CC0803209F4D0
:1010F0005DC0EEC0803409F468C048F4803309F460
:1011000055C0883309F0E4C08093A502D8C080356B
:1011100009F44FC0883509F45DC0883409F0D8C09F
:10112000D6C0883909F4C7C0A8F4883709F467C065
:1011300038F4883609F463C0803709F460C0C8C049
:10114000883809F4B8C0803909F45FC0803809F0E4
:10115000BFC05BC0803B09F486C038F4803A09F414
:1011600066C0883A09F47FC0B3C0803C09F4A7C0C8
:10117000883C09F4A4C0883B09F48AC0A9C08091C6
:10118000C80210C09091C7028091C602981770F5EE
:10119000E091C70281E08E0F8093C702F0E0EA552C
:1011A000FD4F80818093BB0085EC86C08093A502B3
:1011B0008EC0E091C70281E08E0F8093C7028091BC
:1011C000BB00F0E0EA55FD4F80839091C70280910B
:1011D000C6026EC0E091C70281E08E0F8093C70205
:1011E0008091BB00F0E0EA55FD4F80838091E704D9
:1011F00081116DC081E08093E60484EA61C083E0E0
:101200008093E8041092A402CFCF8091A402803290
:1012100008F051C0E091A40281E08E0F8093A402F7
:101220008091BB00F0E0EC57FD4F8083BDCF85EC93
:101230008093BC001092E8048091A402803230F4C4
:10124000E091A402F0E0EC57FD4F10826091A402FF
:1012500070E0E0918202F091830284E892E01995B7
:101260001092A40235C084E08093E80410928102B9
:1012700010928002E0917E02F0917F021995809198
:101280008002811105C081E08093800210925E028D
:10129000E091810281E08E0F80938102F0E0E25ABA
:1012A000FD4F80818093BB009091810280918002EC
:1012B000981708F479CF85E88093BC0009C085ECC5
:1012C0008093BC001092E80403C01092A50272D96A
:1012D000FF91EF91BF91AF919F918F917F916F910E
:1012E0005F914F913F912F910F900BBE0F900FBECA
:1012F0000F901F9018950F931F93CF93DF93EC01DE
:1013000060E0888D71DA83E090E00197F1F761E0A9
:10131000888D6ADA83E290E00197F1F760E0888DCA
:1013200063DA2A8D3B8D3327F901E054FE4F649137
:10133000F901E658FE4FE491F0E0EE0FFF1FE45D87
:10134000FE4F8591949100E412E42FE030E0462FA7
:1013500087D2611571058105910549F0DC01CB014A
:101360000196A11DB11DBC01CD019F7003C060E0BD
:1013700070E0CB016C8F7D8F8E8F9F8F2AE330E0E2
:1013800040E050E00E941618C901DF91CF911F91F3
:101390000F9108951F93CF93DF93EC016E817F81AE
:1013A0006A30710514F410E001C01AE081E0809306
:1013B0005D0288E080933C021092EA041092E904F6
:1013C0008DEE94E07ED9612F8DEE94E07AD96C8118
:1013D0008DEE94E076D98091E904813208F045C021
:1013E0009091E8049111FCCF92E09093E80491E091
:1013F0009093E7049FEF9093A5021092C702809309
:10140000C602ADE3B2E026EA32E0F9019E2F921B5C
:10141000981718F49D919193F9CF1092C80280917A
:10142000C80280618093C8028091E604813061F433
:101430001092E6048091C8028093BB008091BC00AA
:1014400083FDF8CF85EC01C085EE8093BC008091D0
:10145000E8048230E1F38091A5028F3F31F0809162
:10146000A502803211F08091A5021092EA04109238
:10147000E90410925D02DF91CF911F910895FC0164
:101480002281338180819181232B51F4893C910504
:1014900014F4C29602C08FEF90E091838083089588
:1014A0008B3491052CF08B5491099183808306C075
:1014B0001182108281E090E0958384838081918104
:1014C000892B11F4138212820895EF92FF920F93E9
:1014D000CF93DF931F921F92CDB7DEB77C01FC0143
:1014E00086852A83498380D94981642FF7018089C1
:1014F0007BD92A81622FF701848976D9602FF70181
:10150000868972D9F7016081718184859DDAF7013E
:101510006081718182890F900F90DF91CF910F913F
:10152000FF90EF9091CA0F931F93CF93DF93EC013D
:1015300001E010E088819981009791F08B3491054A
:101540002CF08B5491099983888304C019821882E6
:101550001D830C8362E370E080E090E03CDBEACF27
:1015600000E010E020E030E040E050E060E070E0BB
:10157000CE01ABDFDF91CF911F910F910895CF92F4
:10158000DF92EF92FF920F931F93CF93DF936C0143
:101590007A018B01C0E0D0E0CE15DF0589F0D801DB
:1015A0006D918D01D601ED91FC910190F081E02DBE
:1015B000C6011995892B11F47E0102C02196ECCF4A
:1015C000C701DF91CF911F910F91FF90EF90DF90B6
:1015D000CF900895009761F0FC0101900020E9F799
:1015E0003197AF01481B590BBC0186EE92E0C7CF83
:1015F00080E090E008958F929F92AF92BF920F93F8
:101600001F93CF93DF93CDB7DEB7A1970FB6F894B2
:10161000DEBF0FBECDBF19A2423008F44AE08E01F2
:101620000F5D1F4F842E912CA12CB12CA50194018C
:101630000E944218E62FB901CA0101501109EA308F
:1016400014F4E05D01C0E95CD801EC93232B242B5A
:10165000252B61F7C801BEDFA1960FB6F894DEBF57
:101660000FBECDBFDF91CF911F910F91BF90AF9073
:101670009F908F900895CF92DF92EF92FF92DC01BE
:10168000A03282E0B8070CF03EC0B7FD06C0A53B13
:10169000B1052CF0A4EBB0E002C0A0E0B0E0809176
:1016A000FA0428E830E06901C81AD10887FDD3940C
:1016B000CC0CDD1CCC0CDD1C0D2C000CEE08FF0846
:1016C0008091FB0428E532E0281B310987FD339522
:1016D000220F331F220F331FA901330F660B770B25
:1016E0009A01AB012C193D094E095F090E943C1873
:1016F00024EB30E040E050E00E941618C20ED31EEA
:10170000E41EF51ED6019091F904903398F580916E
:10171000FA0448E850E0481B510987FD5395440FEF
:10172000551F440F551FA417B5078CF08091FB047B
:1017300028E532E0281B310987FD3395220F331F3E
:10174000220F331FAD012A173B070CF4A9014250A9
:101750005109440F551F2FB7F894892F90E0FC01D1
:10176000EE0FFF1F8E0F9F1FFC01ED57FC4F5283A2
:1017700041832FBFFF90EF90DF90CF9008958F921D
:101780009F92AF92BF92CF92DF92EF92FF920F9310
:101790001F93CF93DF93FC01C081D1812091E2029E
:1017A0003091E302C217D3070CF048C09E01220F0C
:1017B000331FE091E002F091E102E20FF31F80801D
:1017C0009180C170DD27F1E0CF27209719F404E65E
:1017D00010E002C00CE91FEF7A015B016C01040FFD
:1017E000151FB801C4015EDB892B89F40E0D1F1D86
:1017F000B801C40157DB892B69F4B8016E0D7F1D58
:10180000C40150DB892BE9F023E030E005C021E082
:1018100030E002C022E030E0F50180819181019644
:10182000821793073CF0F50111821082F601808146
:101830009181019691838083CE0105C081E090E083
:1018400002C08FEF9FEFDF91CF911F910F91FF901B
:10185000EF90DF90CF90BF90AF909F908F900895C2
:10186000CF92DF92EF92FF920F931F93E82FF92F01
:1018700005C0015011092109310961F190819623B8
:101880009417B9F305C0015011092109310911F16B
:10189000908196239413F7CFC12CD12CE12CF12CFD
:1018A0000AC08FEFC81AD80AE80AF80A0C151D05F5
:1018B0002E053F0579F080818623841791F36C2DE6
:1018C0007D2D8E2D9F2D1F910F91FF90EF90DF901A
:1018D000CF90089560E070E080E090E01F910F915C
:1018E000FF90EF90DF90CF900895CF93DF93CDB727
:1018F000DEB72C970FB6F894DEBF0FBECDBF78943D
:1019000084B5826084BD84B5816084BD85B5826004
:1019100085BD85B5816085BD80916E0081608093B5
:101920006E0010928100809181008260809381001E
:10193000809181008160809381008091800081602E
:10194000809380008091B10084608093B100809189
:10195000B00081608093B00080919100826080939C
:10196000910080919100816080939100809190001E
:101970008160809390008091A10082608093A1009B
:101980008091A10081608093A1008091A00081607E
:101990008093A00080912101826080932101809139
:1019A00021018160809321018091200181608093D9
:1019B000200180917A00846080937A0080917A007F
:1019C000826080937A0080917A00816080937A00AF
:1019D00080917A00806880937A001092C100F89418
:1019E00012E01093B0001093B10084E68093B3002E
:1019F0001092B20010937000789410931404109217
:101A000018048091150460E00E94E804E091F60259
:101A1000F091F7021083E091F202F091F30210824C
:101A2000E091F402F091F5028FEC80831092FE02B7
:101A3000E091FA02F091FB0286E08083E091F802E7
:101A4000F091F902808180618083E091F802F09149
:101A5000F902808188608083E091F802F091F902B8
:101A6000808180688083E091F802F091F9028081A2
:101A70008F7D80838091F904803308F052C061E04B
:101A800089E00E94E8048091F904E82FF0E09F01CA
:101A9000220F331FE20FF31FED57FC4F9081907C14
:101AA000996090831092FA041092FB046CE00E94FB
:101AB000991A2CE0829FB001112440E050E09A0175
:101AC000260F371FF901EE0FFF1F2E0F3F1FF901E1
:101AD000ED57FC4F908196FD17C04F5F5F4F4C3024
:101AE000510569F7813009F0F9C21092800082E057
:101AF000809381001092850010928400B19A8091A9
:101B00006F00826080936F00E091F904F0E0CF01F4
:101B1000880F991FE80FF91FED57FC4F80818064F3
:101B2000808313E0212E312C44244A94542C32011A
:101B300080917B00877F80937B0080E480937C0092
:101B400080917A00806480937A0080917A0086FD8B
:101B5000FCCF809178002091790090E0922B9093B7
:101B60003B0280933A028F3F910531F02CF01092A6
:101B700039021092380208C0AFEFB0E0A81BB90BD1
:101B8000B0933902A0933802EBE1F4E0F093E10264
:101B9000E093E0028091180490E09093E302809338
:101BA000E2028091E50490E09093E5028093E402E4
:101BB00080911404853009F05BC280911D049091DE
:101BC0001E04885891098D35910588F48091180478
:101BD000843041F480911F049091200480974797AE
:101BE00008F4DCC180911804843408F0A3C2809109
:101BF00018048A3108F453C080911B0490911C048E
:101C0000843F914068F41092DF021092DE0240920D
:101C1000DA025092DB026092DC027092DD025DC05B
:101C200080911D0490911E0485974B97C0F5E1E2C9
:101C3000F4E082E090E0C12CD12C7601AC014F5F42
:101C40005F4F2091180430E0421753075CF4DF0126
:101C500012972D913C91275031092730310508F416
:101C6000B1C2CA010197959587959093DF02809341
:101C7000DE020C972CF41092DF021092DE020FC0ED
:101C8000C092DA02D092DB02E092DC02F092DD0236
:101C900024E030E03093D7022093D60297C18091A0
:101CA00018048A3108F44CC080911B0490911C04E4
:101CB0008032934008F4A7CF80911D0490911E04B8
:101CC000C697869708F49BC23BC0C092DA02D092B6
:101CD000DB02E092DC02F092DD028BE090E096C342
:101CE00020813181255231092B31310508F097C20D
:101CF000CC0CDD1CEE1CFF1C6894C0F802963496D8
:101D0000AC014F5F5F4F2091180430E0421753073A
:101D100054F4DF0112972D913C912C5031092B3056
:101D20003105F0F2CA010197959587959093DF02EE
:101D30008093DE020C974CF61092DF021092DE02C6
:101D400080911804823208F44DC080911D04909156
:101D50001E040697079708F045C0E1E2F4E082E030
:101D600090E0C12CD12C76019C012F5F3F4F409118
:101D7000180450E024173507E4F4DF0112974D9161
:101D80005C9111974E5151094731510508F054C2E9
:101D9000CC0CDD1CEE1CFF1C6894C0F84081518106
:101DA0003496435051094530510510F40296DCCF6A
:101DB000C9010197959587959093DF028093DE0284
:101DC00040972CF41092DF021092DE020BC0C092FA
:101DD000DA02D092DB02E092DC02F092DD028CE0CB
:101DE00090E014C31C821B8281E090E09A83898377
:101DF000809118048D3008F466C049E753E0BE01B5
:101E00006D5F7F4FCE010196BADC892B09F05BC074
:101E100049E753E0BE016D5F7F4FCE010196AFDC15
:101E2000019709F050C049E753E0BE016D5F7F4F55
:101E3000CE010196A4DC892B09F045C0812C912CA0
:101E4000540100E010E08091180490E029813A816B
:101E5000281739074CF549E753E0BE016D5F7F4F06
:101E6000CE0101968CDC7C0149E753E0BE016D5F39
:101E70007F4FCE01019683DCA1E0EA16F10449F41C
:101E8000892B09F5880C991CAA1CBB1C689480F846
:101E900008C0EF28C1F40197B1F4880C991CAA1C62
:101EA000BB1C0F5F1F4FCFCF1093DF020093DE02EA
:101EB0008092DA029092DB02A092DC02B092DD0204
:101EC00081E090E0A3C21C821B8281E090E09A83B3
:101ED00089838091E2029091E302181619060CF0B2
:101EE00052C0E091E002F091E10222E030E03A835A
:101EF00029838281938189974E9708F044C03A8262
:101F00002982848195810B970A9708F03CC04CEB9D
:101F100051E0BE016D5F7F4FCE01019630DC892B11
:101F200091F54CEB51E0BE016D5F7F4FCE01019604
:101F300026DC019741F5812C912C540100E010E042
:101F400029813A818091E2029091E30228173907B2
:101F50000CF0B3C14CEB51E0BE016D5F7F4FCE0181
:101F600001960DDC6C010330110509F072C14CEBD8
:101F700051E0BE016D5F7F4FCE01019600DCC816B7
:101F8000D90609F466C1E091E002F091E102828194
:101F90009381C697869708F4A3C150C48091210409
:101FA000909122040997099708F01CCE1092DF0245
:101FB0001092DE024092DA025092DB026092DC0262
:101FC0007092DD023092D7022092D6026091DA023E
:101FD0007091DB028091DC029091DD024AE00BDB24
:101FE00080E392E0F7DA8091DA029091DB02A0912F
:101FF000DC02B091DD028D3D9242AF4FB105E9F4B4
:1020000081E0809300021092370210923602809194
:10201000FD049091FE0487DA82E08093140410920C
:1020200018048BE292E0D6DA80E392E0D3DA68EE2D
:1020300073E080E090E00E94EB0580910002811146
:10204000EAC1C0903602D0903702E090FD04F090D3
:10205000FE0431E0C316D10409F401C282E0C816BF
:10206000D10409F4ECC2CD2819F481E08093000278
:102070008091FD049091FE04209138023091390244
:10208000DC0117963C932E93169784D9C0903602A4
:10209000D09037020D2C000CEE08FF08F7FE14C09C
:1020A000E091E602F091E7020190F081E02D6DE20F
:1020B00086EE92E0199566277727CB016C197D098A
:1020C0008E099F094AE003C04AE0C701B60193DACE
:1020D00080E392E07FDA0E9427022ACD823061F409
:1020E00010929000809391001092950010929400AD
:1020F00088BB8093710008CD833069F41092A000F2
:1021000082E08093A1001092A5001092A40089BBE8
:1021100080937200F9CC8111F7CC1092200182E0FB
:102120008093210110922501109224018ABB809393
:102130007300EACC80911F0490912004825491098D
:102140008E9708F054CD80E090E040E050E0BA0176
:10215000FC01EF5DFB4F208131812950310929308D
:10216000310508F044CDFC01ED5DFB4F208131814C
:102170002751310922313105F8F020813181265073
:1021800031092730310508F032CD440F551F661F45
:10219000771F049680389105D9F680E290E09093FD
:1021A000DF028093DE024093DA025093DB026093F9
:1021B000DC027093DD0206CF440F551F661F771FA8
:1021C0004160E7CF20813181235131092F30310522
:1021D00048F4CC0CDD1CEE1CFF1C6894C0F8029681
:1021E00034962CCD208131812A5031092930310596
:1021F00008F055CDCC0CDD1CEE1CFF1CF0CF8091FF
:102200001F0490912004C697869708F099CDE3E2C9
:10221000F4E083E090E0C12CD12C760171CD2081D7
:1022200031812C5031092A30310508F089CDCC0C90
:10223000DD1CEE1CFF1C62CD4D915C914C50510990
:102240004B30510508F0CECDCC0CDD1CEE1CFF1C34
:10225000A5CD4CEB51E0BE016D5F7F4FCE010196E5
:102260008EDA7C010330110561F44CEB51E0BE01C4
:102270006D5F7F4FCE01019682DAE816F90609F00C
:1022800082CEC114D10459F4EA94EF2809F07BCE30
:10229000880C991CAA1CBB1C689480F80BC0CA94BB
:1022A000CD2809F070CEEF2809F06DCE880C991C6E
:1022B000AA1CBB1C0F5F1F4F43CE1093DF0200937D
:1022C000DE028092DA029092DB02A092DC02B092EF
:1022D000DD02A2E0B0E0B093D702A093D60276CEA2
:1022E000848195814B97459708F0A8C2DF01169627
:1022F0007F0126ECE20EF11C20E030E040E050E0EF
:1023000060E070E080E090E00D911C911197095021
:1023100011090830110508F091C212960D911C9117
:102320001397015111090D30110520F501E00E94AC
:10233000AD1A21601496AE15BF0531F72093DA026D
:102340003093DB024093DC025093DD0200E20E94F6
:10235000C81A2093D8023093D902E5E0F0E0F09358
:10236000D702E093D60280E390E09093DF0280935F
:10237000DE022CCE12960D911C9113970450110978
:102380000530110508F05AC201E00E94AD1AD2CF03
:10239000A80142505109DA014D915C91495051090F
:1023A0004830510508F0F8C2BC016F5F7F4FD8017B
:1023B0004D915C91475051094730510508F0E7C4F1
:1023C000220F331F216002960C5F1F4F40911804AB
:1023D00050E04450510984179507D4F20197959520
:1023E00087959093DF028093DE028A970CF4D4C223
:1023F000C901330FAA0BBB0B8093DA029093DB0267
:10240000A093DC02B093DD0289E090E09093D702C4
:102410008093D602DBCD8091DA029091DB02A0910D
:10242000DC02B091DD02873E38E193073FEFA3075E
:10243000B10561F08F3C9043AF4FB10569F481E085
:1024400090E0909337028093360206C022E030E09D
:10245000309337022093360210920002E9C1809136
:10246000DA029091DB02A091DC02B091DD02873CA0
:10247000E8E39E07EFEFAE07B10509F4B6C038F503
:102480008F3E20E192072FEFA207B10509F45AC051
:10249000873E9841AF4FB10509F0CAC0D7011596E4
:1024A000DC92CE9214971B961C921E921A97199644
:1024B0001C921E921897C7010E943F0A00E010E08C
:1024C00021E030E040E050E061E070E0AEC0853BEC
:1024D000EAE49E07EFEFAE07B10539F0853A9A4579
:1024E000AF4FB10509F456C0A3C022E030E0F701B8
:1024F00035832483138612861186108622813381C8
:1025000080819181232B51F48333910514F0C2977C
:102510000AC011821082D382C2820DC08F3F910502
:102520002CF44996F7019183808305C0EFEFF0E02A
:10253000D701ED93FC9301E010E020E030E041E0B2
:1025400050E071C0D7011B961C921E921A971896E4
:102550008D919C911997019619969C938E9318973B
:102560008130910529F415963C922E92149760C003
:10257000029709F05DC001E010E020E030E040E0AB
:1025800050E061E070E0C7010E94650AF701118622
:1025900010864EC0D70119961C921E9218971A9653
:1025A0008D919C911B9701961B969C938E931A97E5
:1025B0008130910539F4E4E0F0E01596FC93EE9358
:1025C000149736C00297A1F500E010E021E030E05A
:1025D00041E050E060E070E0C7010E94650AD70169
:1025E0001B961C921E921A9723C025E030E0F7013B
:1025F00035832483808191818B3491052CF08B5419
:1026000091099183808304C011821082D582C48293
:10261000F70180819181892B59F400E010E020E0DE
:1026200030E040E050E060E070E0C7010E94650AE1
:102630006AE070E080E090E00E94EB05F9C0C7011D
:102640000E947B090F97CCF081E090E0D7011596AE
:102650009C938E931497C7010E94CA09C7010E94D8
:102660003F0A00E010E021E030E040E050E061E0AF
:1026700070E0C7010E94650A67C0C7010E94930A03
:1026800081E0F70184A380A191A1892B09F45CC0AA
:1026900082A193A1892B09F457C02FEF30E0318339
:1026A000208301E010E020E030E041E050E060E015
:1026B00070E0C7010E94650AD7011596DC92CE92A0
:1026C0001497C7010E94CA0964EF71E080E090E0AE
:1026D0000E94EB05F70122A133A180A191A18217ED
:1026E00093079CF400E010E021E030E041E050E08E
:1026F00060E070E0C7010E94650AE4E0F0E0D70105
:102700001596FC93EE93149710C001E010E020E0C2
:1027100030E040E050E061E070E0C7010E94650AEF
:10272000D70115963C922E921497C7010E94CA09B0
:1027300062EE74E080E090E00E94EB05F70113A2E6
:1027400012A211A210A214A2E091FD04F091FE04C5
:1027500084A1882309F48CCC2AE530E0309335023B
:10276000209334020091340210913502053B11058B
:1027700084F4C8010E943B0B6AE070E080E090E0C6
:102780000E94EB050F5F1F4F109335020093340238
:10279000E9CF8091FD049091FE040E947B098C0199
:1027A00084EB90E09093350280933402E090340201
:1027B000F0903502F7FC11C0C7010E943B0B6AE0A4
:1027C00070E080E090E00E94EB0591E0E91AF108EA
:1027D000F0923502E0923402E9CF8091FD049091AD
:1027E000FE040E947B09E091FD04F091FE0414A216
:1027F00011A300A393A382A3109235021092340276
:1028000000913402109135020B3511050CF030CCDB
:10281000C8010E943B0B6AE070E080E090E00E94FB
:10282000EB050F5F1F4F1093350200933402E8CF82
:1028300082E080931404109218041ACC809118043A
:10284000893370F18281938189579109833591058C
:1028500008F443C125C0D90112966D917C9113975C
:10286000665171096131710508F063C1D701C60174
:10287000880F991FAA1FBB1F6C017D016894C0F8C7
:102880004E5F5F4F2C5F3F4F4B33510509F434C10E
:10289000D9016D917C916A50710969307105D8F246
:1028A00080911804823231F4828193810A970997CA
:1028B00008F44FC18281938189579109833591052D
:1028C000D0F4809118048132B0F084819581CA9748
:1028D000899788F49F012A5F3F4FC12CD12C760144
:1028E00043E050E0D9016D917C916A5071096930E3
:1028F000710508F44AC1828193818C549109C5976E
:1029000078F480911804843031F484819581809723
:10291000479708F49AC180911804843408F07CC168
:1029200080911804863460F1828193810C970B9713
:1029300008F4D6C125C0D90112966D917C911397E8
:102940006E5171096731710508F002C2D701C601E5
:10295000880F991FAA1FBB1F6C017D016894C0F8E6
:102960004E5F5F4F2C5F3F4F4534510509F4D3C193
:10297000D9016D917C916C5071096B307105D8F261
:1029800080911804883540F082819381855891099F
:102990008B35910508F4ECC1809118048032E1F484
:1029A0008281938106970697B8F48481958109976F
:1029B000099790F49F012A5F3F4FBF01625C7F4FF0
:1029C000C12CD12C7601D9014D915C914650510911
:1029D0004630510508F4E8C12091E2023091E3024B
:1029E00038872F83263031050CF422CF8F010A5F00
:1029F0001F4F95ECC92E9DE9D92E9CE1E92E91E857
:102A0000F92E83E090E09E838D83D8016D917C91B7
:102A1000F8013497A080B18080E090E066D46987A7
:102A20007A878B879C87B50180E090E05ED44B016C
:102A30005C012DEC3CEC4CE45FE309D59B01AC015F
:102A400069857A858B859C85B3D387FD17C02DEC6E
:102A50003CEC4CE45FE369857A858B859C85F7D4F3
:102A60009B01AC01C501B401A3D3E82F880FFF0B74
:102A7000EE27FF0FEE1FFF27319602C0E0E0F0E0E7
:102A8000A701960163E971E080E091E043D56F0111
:102A9000FF0FEE08FF08C626D726E826F926ED81A7
:102AA000FE813196FE83ED830E5F1F4F2F813885A7
:102AB000E217F30709F0A9CFC092DA02D092DB0245
:102AC000E092DC02F092DD0280E290E09093DF027F
:102AD0008093DE028FEF9FEF99CC84819581CA9716
:102AE000899708F0DDCE9F012A5F3F4FC12CD12C82
:102AF000760143E050E0CCCE9F012A583F4FD901E8
:102B00002D913C912A5031092930310508F0C8CE69
:102B10002CE130E03093DF022093DE02C092DA0233
:102B2000D092DB02E092DC02F092DD028AE090E0DB
:102B30006DCCD90112966D917C91139766507109F5
:102B40006730710508F0ACCECC0CDD1CEE1CFF1C10
:102B500097CE20911804CF01820F911D820F911DF5
:102B6000DC0112978D919C910A97099708F0A2CEEB
:102B70001092DF021092DE024092DA025092DB02E3
:102B80006092DC027092DD024AC1D90112966D9109
:102B90007C911397665171096131710568F5D70110
:102BA000C601880F991FAA1FBB1F6C017D01689485
:102BB000C0F84E5F5F4F2C5F3F4F4332510509F025
:102BC00091CE9F012A5B3F4FD9012D913C912A5014
:102BD00031092930310508F08ECE20E130E0309304
:102BE000DF022093DE02C092DA02D092DB02E09292
:102BF000DC02F092DD0213C1D90112966D917C9135
:102C00001397665071096730710508F074CECC0CCB
:102C1000DD1CEE1CFF1CCDCF848195818954910968
:102C2000C39708F07DCE9F012A5F3F4FBF016A57CF
:102C30007F4FC12CD12C7601D9014D915C91495027
:102C4000510949305105A0F06BCE868197810997D3
:102C5000099708F060CE1092DF021092DE024092D7
:102C6000DA025092DB026092DC027092DD02DAC07E
:102C7000D90112964D915C911397465151094131FA
:102C80005105F0F4D701C601880F991FAA1FBB1F79
:102C90006C017D016894C0F82C5F3F4F2617370701
:102CA00059F620E230E03093DF022093DE02C0923A
:102CB000DA02D092DB02E092DC02F092DD02B2C0D6
:102CC000D90112964D915C911397465051094730A6
:102CD000510508F025CECC0CDD1CEE1CFF1CDCCF12
:102CE000848195810997099708F04ACE868197815A
:102CF0008C974F9708F044CE8085918589974D97A2
:102D000008F03ECE9F01265F3F4FC12CD12C7601AB
:102D100045E050E02DCE9F0126573F4FD9012D9120
:102D20003C912C5031092B30310508F029CE20E29E
:102D300030E03093DF022093DE02C092DA02D092BC
:102D4000DB02E092DC02F092DD0288E090E05ECBF4
:102D5000D90112966D917C91139769507109693070
:102D6000710508F00DCECC0CDD1CEE1CFF1CF8CD5F
:102D700084819581825491098E9708F00DCE8F0140
:102D8000045C1F4F8DE190E020E030E01FCBD801C4
:102D90004D915C91485151094231510510F0CB01E0
:102DA0001DCB220F331F0FCBD90112964D915C9191
:102DB0001397495151094331510508F5D701C6010F
:102DC000880F991FAA1FBB1F6C017D016894C0F872
:102DD0002C5F3F4F2617370709F0F5CD2EE030E086
:102DE0003093DF022093DE02C092DA02D092DB023F
:102DF000E092DC02F092DD028FE090E007CBD90197
:102E000012964D915C9113974950510949305105E3
:102E100008F0E2CDCC0CDD1CEE1CFF1CD9CF86E007
:102E200090E0F4CA87E090E0F1CACF93DF9310926C
:102E3000E9021092E80288EE93E0A0E0B0E080930F
:102E4000EA029093EB02A093EC02B093ED022BE028
:102E500032E03093E7022093E60225EC30E0309335
:102E6000F3022093F20224EC30E03093F502209339
:102E7000F40220EC30E03093F7022093F60221ECCC
:102E800030E03093F9022093F80222EC30E03093E6
:102E9000FB022093FA0226EC30E03093FD022093EF
:102EA000FC021092FF021092000310920103109294
:102EB00002031092F0041092EF048093F1049093B7
:102EC000F204A093F304B093F4048DE192E09093A4
:102ED000EE048093ED0485E290E076D3EC011CA231
:102EE0008DE790E0998388831B821A8281E090E0CD
:102EF0009D838C831F821E82198618861B861A86E4
:102F000087E090E09D878C8786E090E09F878E87A2
:102F100085E090E0998B888B82E090E09B8B8A8B98
:102F200084E090E09D8B8C8B83E090E09F8B8E8B78
:102F300061E087E00E94E80461E08A890E94E80479
:102F400061E08E850E94E80461E088890E94E804BF
:102F500061E08C890E94E80461E08E890E94E804A7
:102F600087E390E0998F888F88E390E09B8F8A8F2A
:102F70001C8E1D8E1E8E1F8E1BA21AA219A218A2B5
:102F800061E087E30E94E80460E08A8D0E94E80423
:102F90001092EC041092EB041092EA041092E904EF
:102FA0001092E80481E08093E7041092E60461E067
:102FB00084E10E94F40361E085E10E94F4038091C2
:102FC000B9008E7F8093B9008091B9008D7F809386
:102FD000B90088E48093B80085E48093BC00D09366
:102FE000FE04C093FD048BE0809315041092170437
:102FF000809113048033A0F491E0980F9093130410
:103000008093F90490E0FC01EE0FFF1F8E0F9F1FCD
:10301000FC01ED57FC4F88EB9BE09283818303C05A
:103020008FEF8093F904DF91CF910895052E97FBE0
:1030300016F400940FD057FD05D024D007FC02D021
:1030400046F408C050954095309521953F4F4F4F1D
:103050005F4F089590958095709561957F4F8F4F44
:103060009F4F089531D0A59F900DB49F900DA49FC0
:10307000800D911D11240895B7FFF4CFF3DF821B5B
:10308000930B0895A1E21A2EAA1BBB1BFD010DC0D4
:10309000AA1FBB1FEE1FFF1FA217B307E407F50708
:1030A00020F0A21BB30BE40BF50B661F771F881FE4
:1030B000991F1A9469F760957095809590959B017A
:1030C000AC01BD01CF010895A29FB001B39FC00123
:1030D000A39F700D811D1124911DB29F700D811D44
:1030E0001124911D08955058BB27AA270ED075C1F1
:1030F00066D130F06BD120F031F49F3F11F41EF413
:103100005BC10EF4E095E7FB51C1E92F77D180F365
:10311000BA17620773078407950718F071F49EF5D4
:103120008FC10EF4E0950B2EBA2FA02D0B01B90123
:1031300090010C01CA01A0011124FF27591B99F02D
:10314000593F50F4503E68F11A16F040A22F232F39
:10315000342F4427585FF3CF469537952795A79589
:10316000F0405395C9F77EF41F16BA0B620B730B30
:10317000840BBAF09150A1F0FF0FBB1F661F771FA1
:10318000881FC2F70EC0BA0F621F731F841F48F456
:10319000879577956795B795F7959E3F08F0B3CFDC
:1031A0009395880F08F09927EE0F979587950895C6
:1031B000D9D008F481E008950CD00FC107D140F0B8
:1031C000FED030F021F45F3F19F0F0C0511139C149
:1031D000F3C014D198F39923C9F35523B1F3951B88
:1031E000550BBB27AA2762177307840738F09F5F28
:1031F0005F4F220F331F441FAA1FA9F333D00E2E97
:103200003AF0E0E830D091505040E695001CCAF703
:1032100029D0FE2F27D0660F771F881FBB1F2617C8
:1032200037074807AB07B0E809F0BB0B802DBF019B
:10323000FF2793585F4F2AF09E3F510568F0B6C0B4
:1032400000C15F3FECF3983EDCF386957795679578
:10325000B795F7959F5FC9F7880F911D969587954C
:1032600097F90895E1E0660F771F881FBB1F62176B
:1032700073078407BA0720F0621B730B840BBA0B29
:10328000EE1F88F7E095089504D06894B111D9C075
:103290000895BCD088F09F5790F0B92F9927B75167
:1032A000A0F0D1F0660F771F881F991F1AF0BA950A
:1032B000C9F712C0B13081F0C3D0B1E00895C0C0E9
:1032C000672F782F8827B85F39F0B93FCCF3869500
:1032D00077956795B395D9F73EF49095809570955D
:1032E00061957F4F8F4F9F4F0895E89409C097FBDA
:1032F0003EF490958095709561957F4F8F4F9F4FCD
:103300009923A9F0F92F96E9BB279395F695879510
:1033100077956795B795F111F8CFFAF4BB0F11F4D3
:1033200060FF1BC06F5F7F4F8F4F9F4F16C088237A
:1033300011F096E911C0772321F09EE8872F762FB0
:1033400005C0662371F096E8862F70E060E02AF0F1
:103350009A95660F771F881FDAF7880F96958795DD
:1033600097F90895990F0008550FAA0BE0E8FEEFB2
:1033700016161706E807F907C0F012161306E40739
:10338000F50798F0621B730B840B950B39F40A2632
:1033900061F0232B242B252B21F408950A2609F410
:1033A000A140A6958FEF811D811D089597F99F6714
:1033B00080E870E060E008959FEF80EC08950024BD
:1033C0000A941616170618060906089500240A948A
:1033D00012161306140605060895092E0394000C10
:1033E00011F4882352F0BB0F40F4BF2B11F460FF9F
:1033F00004C06F5F7F4F8F4F9F4F089557FD9058C8
:10340000440F551F59F05F3F71F04795880F97FBA8
:10341000991F61F09F3F79F0879508951216130662
:103420001406551FF2CF4695F1DF08C01616170691
:103430001806991FF1CF86957105610508940895C6
:10344000E894BB2766277727CB0197F908950BD01F
:10345000C4CFB5DF28F0BADF18F0952309F0A6CF66
:10346000ABCF1124EECFCADFA0F3959FD1F3950F18
:1034700050E0551F629FF001729FBB27F00DB11DF8
:10348000639FAA27F00DB11DAA1F649F6627B00D88
:10349000A11D661F829F2227B00DA11D621F739F71
:1034A000B00DA11D621F839FA00D611D221F749F7F
:1034B0003327A00D611D231F849F600D211D822FC6
:1034C000762F6A2F11249F5750408AF0E1F088230D
:1034D0004AF0EE0FFF1FBB1F661F771F881F91501A
:1034E0005040A9F79E3F510570F060CFAACF5F3FD3
:1034F000ECF3983EDCF3869577956795B795F7954D
:10350000E7959F5FC1F7FE2B880F911D96958795D4
:1035100097F90895DB018F939F93A4DDBF91AF913D
:10352000A29F800D911DA39F900DB29F900D11241D
:103530000895991B79E004C0991F961708F0961B0F
:10354000881F7A95C9F780950895EE0FFF1F881F91
:103550008BBF0790F691E02D19940F93083090F0EF
:10356000982F872F762F652F542F432F322F222706
:103570000850F4CF220F331F441F551F661F771FBB
:10358000881F991F0A95B2F70F91089597FB10F8BD
:10359000169400080F93083098F00850232F342F0A
:1035A000452F562F672F782F892F902DF4CF059414
:1035B000979587957795679557954795379527956B
:1035C0000A95AAF70F910895CF93DF938230910562
:1035D00010F482E090E0E0910105F091020520E016
:1035E00030E0C0E0D0E0309711F1408151814817C0
:1035F0005907C0F04817590761F4828193812097D9
:1036000019F09B838A832BC0909302058093010558
:1036100026C02115310519F04217530718F49A01F5
:10362000BE01DF01EF010280F381E02DDCCF211527
:10363000310509F1281B390B2430310590F412961D
:103640008D919C9113976115710521F0FB01938376
:10365000828304C09093020580930105FD01329698
:1036600044C0FD01E20FF31F819391932250310971
:103670002D933C933AC02091FF0430910005232BF9
:1036800041F420910302309104023093000520930D
:10369000FF0420910102309102022115310541F40D
:1036A0002DB73EB74091050250910602241B350B01
:1036B000E091FF04F0910005E217F307A0F42E1B40
:1036C0003F0B2817390778F0AC014E5F5F4F241786
:1036D000350748F04E0F5F1F509300054093FF04DD
:1036E0008193919302C0E0E0F0E0CF01DF91CF91B0
:1036F00008950F931F93CF93DF93009709F48CC025
:10370000FC0132971382128200910105109102058B
:103710000115110581F420813181820F931F2091C1
:10372000FF04309100052817390779F5F09300055B
:10373000E093FF0471C0D80140E050E0AE17BF072E
:1037400050F412962D913C911397AD01211531053E
:1037500009F1D901F3CF9D01DA013383228360811E
:103760007181860F971F8217930769F4EC012881F6
:103770003981260F371F2E5F3F4F318320838A8187
:103780009B8193838283452B29F4F0930205E09378
:10379000010542C01396FC93EE931297ED014991F7
:1037A00059919E01240F351FE217F30771F48081B0
:1037B0009181840F951F029611969C938E9382811E
:1037C000938113969C938E931297E0E0F0E0D801DA
:1037D00012968D919C911397009719F0F8018C0126
:1037E000F6CF8D919C9198012E5F3F4F820F931FD2
:1037F0002091FF04309100052817390769F43097AC
:1038000029F4109202051092010502C0138212825F
:10381000109300050093FF04DF91CF911F910F914A
:0E382000089581E090E0F89400C0F894FFCF86
:10382E000100000305800000000000C001BF0A591E
:10383E000106028A0168017C01000000006103326A
:10384E000390030C032A031B030D0350524556002D
:04385E000D0A00004F
:00000001FF
